S00E00004865617465722E73726563BD
S11300000C9432000C944F000C944F000C944F004D
S11300100C944F000C944F000C944F000C944F0020
S11300200C944F000C944F000C94B3050C944F00A7
S11300300C944F000C944F000C944F000C944F0000
S11300400C944F000C944F000C944F000C944F00F0
S11300500C944F008203850388038B038E03910362
S11300609403970311241FBECFE5D8E0DEBFCDBFB4
S113007010E0A0E6B0E0EEE4F2E102C005900D92DB
S1130080A236B107D9F720E0A2E6B0E001C01D9284
S1130090A43DB207E1F70E94EA010C9425090C94EF
S11300A000000E94D602809372008130B1F49091D6
S11300B06D00911112C0809160008352893218F052
S11300C08CE3809360000E9439020E9444031092E2
S11300D06C0081E080936D0008958130C1F48091BB
S11300E06D008130A1F46091600080E090E00E9496
S11300F0180910926C000E944A030E9433030E9464
S11301005D020E946E030E945C0310926D000895CC
S1130110CF9380916D00813009F07DC0109263000F
S113012010926400109265001092660010926B00A9
S113013049C081E00E947903BC01660F771F660FF6
S1130140771F680F791F7093CF006093CE0080E013
S113015090E00E94F90620E030EC4FE754E40E945E
S1130160580620E030E048EC52E40E948C0760938B
S1130170D0007093D1008093D2009093D300C091AB
S11301806B00EC2FF0E0EE0FFF1FEE0FFF1FEA55A0
S1130190FF4F608371838283938320916300309146
S11301A0640040916500509166000E94EC056093E4
S11301B06300709364008093650090936600CF5F42
S11301C0C0936B0080916B008A3008F4B2CF20E0BA
S11301D030E040E251E460916300709164008091EA
S11301E06500909166000E945806609367007093C2
S11301F068008093690090936A0020916C0021113B
S113020006C00E94CA06862F0E94990204C08091EB
S113021060000E949902CF91089580916D00813011
S1130220C9F480916C008130A9F4809162008F5FE1
S1130230809362008091A500811106C00E945D0236
S113024081E08093A50008950E94390280916000A6
S11302500E949902089580916D00813009F04EC08A
S11302600E94F30280936F000E94100380936E003B
S113027030916F00313011F0813039F490916C007D
S1130280911103C091E090936C0021E090916C0077
S1130290913009F020E091E040916200453008F08F
S11302A090E0922319F1313071F4809160008B3425
S11302B018F48B5F80936000809160000E94990223
S11302C0109262000FC0813069F480916000843222
S11302D018F0855080936000809160000E9499021C
S11302E010926200809160000E94990280916200E5
S11302F0853021F410926C00109262000895CF9220
S1130300DF92EF92FF92CF93DF9380916D00813063
S113031009F047C0C0916000D0E0BE01655071098A
S1130320072E000C880B990B0E94FB06C0906700F7
S1130330D0906800E0906900F0906A00A7019601EF
S11303400E948707181654F481E08093710010927C
S113035070000E9468030E945C0323C0BE016B5FAF
S11303607F4F072E000C880B990B0E94FB069B0104
S1130370AC01C701B6010E948707181654F4109205
S1130380710081E0809370000E9456030E946E0306
S113039008C010927100109270000E945C030E94C9
S11303A06E03DF91CF91FF90EF90DF90CF9008958F
S11303B080916D00813069F480917000813019F46E
S11303C00E942D03089580917100813011F40E94E0
S11303D0390308950E9427030E943E030E94D0021D
S11303E00E94ED020E940A030E9462030E945003CD
S11303F00E9474030E9439020E94E80425E042E04E
S113040050E060E070E081E590E00E94380522E071
S113041043E050E060E070E088E890E00E94380536
S113042020E041E050E060E070E08BE291E00E9467
S1130430380523E045E050E060E070E08DE091E0B5
S11304400E94380524E042E050E060E070E08FE76D
S113045091E00E94380521E04AE050E060E070E05D
S113046088ED91E00E9438050E94510580E090E0FB
S1130470089541E064E080E00E94A40341E065E067
S113048080E00E94A40341E066E080E00E94A403AF
S113049041E067E080E00E94A40341E061E081E084
S11304A00E94A40341E062E081E00E94A40341E0D1
S11304B063E081E00E94A403089540E064E080E0EA
S11304C00E94A40340E065E080E00E94A40340E0B1
S11304D066E080E00E94A40340E067E080E00E94C0
S11304E0A40340E061E081E00E94A40340E062E0F4
S11304F081E00E94A40340E063E081E00E94A40341
S1130500089541E061E081E00E941504089540E00F
S113051061E081E00E941504089541E062E081E019
S11305200E941504089540E062E081E00E941504F1
S11305300895CF939DEC899F912D1124292F269501
S113054026952695220F322F330F330F230F821B4C
S1130550282FC92FC695C695C6952295207F2BBBFB
S11305600E9481020E9493022FEF80E792E02150C3
S113057080409040E1F700C000009C2F9295907F4E
S11305809BBB0E9487020E948D022FEF80E792E0BE
S1130590215080409040E1F700C00000CF910895C1
S11305A040E060E081E00E94A4030895CF9360E0FE
S11305B081E00E94BA04C82F8FE39CE90197F1F708
S11305C000C000008C2F04C060E081E00E94BA04E7
S11305D08130D1F38C2FCF91089540E065E081E024
S11305E00E94A4030895CF9365E081E00E94BA04B9
S11305F0C82F8FE39CE90197F1F700C000008C2F0E
S113060004C065E081E00E94BA048130D1F38C2FEC
S1130610CF91089540E066E081E00E94A40308952C
S1130620CF9366E081E00E94BA04C82F8FE39CE96F
S11306300197F1F700C000008C2F04C066E081E050
S11306400E94BA048130D1F38C2FCF91089541E0F8
S113065062E082E00E94A403089541E062E082E047
S11306600E941504089540E062E082E00E941504AF
S1130670089562E082E00E948604089541E063E008
S113068082E00E94A403089541E063E082E00E94B6
S11306901504089540E063E082E00E941504089583
S11306A041E067E083E00E94A403089541E067E02D
S11306B083E00E941504089540E067E083E00E940F
S11306C01504089541E066E083E00E94A4030895C0
S11306D041E066E083E00E941504089540E066E08E
S11306E083E00E941504089580E487B987EA86B9F7
S11306F0089590E088309105E8F4FC01E65DFF4F31
S11307000C944B0880E487B917C081E487B914C0FE
S113071082E487B911C083E487B90EC084E487B941
S11307200BC085E487B908C086E487B905C087E4AF
S113073087B902C088E287B986B1806486B9349BE0
S1130740FECF84B195B10895442319F04130C9F125
S11307500895813091F028F08230D9F0833029F166
S113076008952AB381E090E002C0880F991F6A952A
S1130770E2F7809582238ABB089527B381E090E055
S113078002C0880F991F6A95E2F78095822387BB80
S1130790089524B381E090E002C0880F991F6A9500
S11307A0E2F78095822384BB089521B381E090E031
S11307B002C0880F991F6A95E2F78095822381BB56
S11307C00895813089F028F08230C9F0833011F126
S11307D008952AB381E090E002C0880F991F6A95BA
S11307E0E2F7822B8ABB089527B381E090E002C030
S11307F0880F991F6A95E2F7822B87BB089524B36B
S113080081E090E002C0880F991F6A95E2F7822B7D
S113081084BB089521B381E090E002C0880F991F42
S11308206A95E2F7822B81BB0895442319F0413085
S1130830C9F10895813091F028F08230D9F08330E5
S113084029F108952BB381E090E002C0880F991F2D
S11308506A95E2F7809582238BBB089528B381E0E3
S113086090E002C0880F991F6A95E2F78095822371
S113087088BB089525B381E090E002C0880F991FDA
S11308806A95E2F78095822385BB089522B381E0BF
S113089090E002C0880F991F6A95E2F78095822341
S11308A082BB0895813089F028F08230C9F083300A
S11308B011F108952BB381E090E002C0880F991FD5
S11308C06A95E2F7822B8BBB089528B381E090E010
S11308D002C0880F991F6A95E2F7822B88BB08959E
S11308E025B381E090E002C0880F991F6A95E2F772
S11308F0822B85BB089522B381E090E002C0880F6B
S1130900991F6A95E2F7822B82BB0895813089F0A2
S113091028F08230C9F0833011F108952BB381E0BF
S113092090E002C0880F991F6A95E2F782278BBB7B
S1130930089528B381E090E002C0880F991F6A955A
S1130940E2F7822788BB089525B381E090E002C0D6
S1130950880F991F6A95E2F7822785BB089522B311
S113096081E090E002C0880F991F6A95E2F7822720
S113097082BB0895813079F028F08230A9F0833069
S1130980E1F024C089B390E002C0959587956A95FB
S1130990E2F78170089586B390E002C0959587953B
S11309A06A95E2F78170089583B390E002C095954B
S11309B087956A95E2F78170089580B390E002C04C
S11309C0959587956A95E2F78170089585E0089575
S11309D0AF92BF92CF92DF92EF92FF920F931F9349
S11309E08DE083BF20E107C084E1622F0E941D08CF
S11309F0992319F021502111F7CF84E1622F0E942D
S1130A001D0890E09093A4008093A3009093A2000B
S1130A108093A100A12C0F2EF4E2BF2EF02D0F2EF7
S1130A20F4EFCF2EF02DD12CE12CF12C00E010E0CE
S1130A3030E040E050E060E070E080E090E00E9450
S1130A4051080F2EF0EABF2EF02D0F2EFFE0CF2E0F
S1130A50F02D0E94AC082CBF89B7826089BF1F911A
S1130A600F91FF90EF90DF90CF90BF90AF900895DB
S1130A700097B1F02630A0F430E0F901EE0FFF1F2B
S1130A80EE0FFF1FEE0FFF1FE21BF30BED58FF4F9E
S1130A9091838083428353836483758389E486834B
S1130AA00895789440E050E0BA0180919D009091BF
S1130AB09E00A0919F00B091A000481759076A07B3
S1130AC07B0798F743C0C12F012E000CDD0BFE01FC
S1130AD0EE0FFF1FEE0FFF1FEE0FFF1FEC1BFD0BB2
S1130AE0ED58FF4FE080F180E114F10469F1FE015B
S1130AF0EE0FFF1FEE0FFF1FEE0FFF1FEC1BFD0B92
S1130B00ED58FF4F228133814481558160919D00CE
S1130B1070919E0080919F009091A0000E942908EE
S1130B20672B682B692B81F4FE01EE0FFF1FEE0F7C
S1130B30FF1FEE0FFF1FEC1BFD0BED58FF4F8681CF
S1130B40893411F4F7010995115001C015E01123FE
S1130B500CF0B9CF40919D0050919E0060919F0090
S1130B607091A000A2CF1F920F920FB60F92112482
S1130B708F939F93AF93BF938091A1009091A20014
S1130B8001979093A2008093A100892BD9F48091BE
S1130B909D0090919E00A0919F00B091A0000196AD
S1130BA0A11DB11D80939D0090939E00A0939F0072
S1130BB0B093A0008091A3009091A4009093A20010
S1130BC08093A100BF91AF919F918F910F900FBE21
S1130BD00F901F9018955058BB27AA270E94030610
S1130BE00C944D070E943F0738F00E94460720F0FE
S1130BF039F49F3F19F426F40C943C070EF4E09565
S1130C00E7FB0C943607E92F0E945E0758F3BA17E6
S1130C10620773078407950720F079F4A6F50C940E
S1130C2080070EF4E0950B2EBA2FA02D0B01B9010D
S1130C3090010C01CA01A0011124FF27591B99F04E
S1130C40593F50F4503E68F11A16F040A22F232F5A
S1130C50342F4427585FF3CF469537952795A795AA
S1130C60F0405395C9F77EF41F16BA0B620B730B51
S1130C70840BBAF09150A1F0FF0FBB1F661F771FC2
S1130C80881FC2F70EC0BA0F621F731F841F48F477
S1130C90879577956795B795F7959E3F08F0B0CF00
S1130CA09395880F08F09927EE0F979587950895E7
S1130CB00E946C060C944D070E94460758F00E944F
S1130CC03F0740F029F45F3F29F00C943607511197
S1130CD00C9481070C943C070E945E0768F39923E7
S1130CE0B1F3552391F3951B550BBB27AA27621724
S1130CF07307840738F09F5F5F4F220F331F441F31
S1130D00AA1FA9F335D00E2E3AF0E0E832D0915064
S1130D105040E695001CCAF72BD0FE2F29D0660F51
S1130D20771F881FBB1F261737074807AB07B0E894
S1130D3009F0BB0B802DBF01FF2793585F4F3AF09A
S1130D409E3F510578F00C9436070C9481075F3F61
S1130D50E4F3983ED4F3869577956795B795F79520
S1130D609F5FC9F7880F911D9695879597F9089508
S1130D70E1E0660F771F881FBB1F621773078407A4
S1130D80BA0720F0621B730B840BBA0BEE1F88F7B3
S1130D90E09508950E94660788F09F5798F0B92F50
S1130DA09927B751B0F0E1F0660F771F881F991F9C
S1130DB01AF0BA95C9F714C0B13091F00E948007B7
S1130DC0B1E008950C948007672F782F8827B85FC7
S1130DD039F0B93FCCF3869577956795B395D9F7F4
S1130DE03EF490958095709561957F4F8F4F9F4FFE
S1130DF00895E89409C097FB3EF49095809570950A
S1130E0061957F4F8F4F9F4F9923A9F0F92F96E952
S1130E10BB279395F695879577956795B795F111C7
S1130E20F8CFFAF4BB0F11F460FF1BC06F5F7F4F64
S1130E308F4F9F4F16C0882311F096E911C0772376
S1130E4021F09EE8872F762F05C0662371F096E87F
S1130E50862F70E060E02AF09A95660F771F881F4E
S1130E60DAF7880F9695879597F9089597F99F670C
S1130E7080E870E060E008959FEF80EC089500241E
S1130E800A941616170618060906089500240A94EB
S1130E9012161306140605060895092E0394000C71
S1130EA011F4882352F0BB0F40F4BF2B11F460FF00
S1130EB004C06F5F7F4F8F4F9F4F089557FD905829
S1130EC0440F551F59F05F3F71F04795880F97FB0A
S1130ED0991F61F09F3F79F08795089512161306C4
S1130EE01406551FF2CF4695F1DF08C016161706F3
S1130EF01806991FF1CF8695710561050894089528
S1130F00E894BB2766277727CB0197F908950E94B9
S1130F10F90708F48FEF08950E949F070C944D077A
S1130F200E943F0738F00E94460720F0952311F0F5
S1130F300C9436070C943C0711240C9481070E94EE
S1130F405E0770F3959FC1F3950F50E0551F629FA4
S1130F50F001729FBB27F00DB11D639FAA27F00D0E
S1130F60B11DAA1F649F6627B00DA11D661F829F35
S1130F702227B00DA11D621F739FB00DA11D621F1A
S1130F80839FA00D611D221F749F3327A00D611D37
S1130F90231F849F600D211D822F762F6A2F112419
S1130FA09F5750409AF0F1F088234AF0EE0FFF1F4C
S1130FB0BB1F661F771F881F91505040A9F79E3FA3
S1130FC0510580F00C9436070C9481075F3FE4F3DD
S1130FD0983ED4F3869577956795B795F795E795F9
S1130FE09F5FC1F7FE2B880F911D9695879597F902
S1130FF00895990F0008550FAA0BE0E8FEEF1616A6
S11310001706E807F907C0F012161306E407F507F8
S113101098F0621B730B840B950B39F40A2661F06C
S1131020232B242B252B21F408950A2609F4A1400F
S1131030A6958FEF811D811D0895991B79E004C049
S1131040991F961708F0961B881F7A95C9F7809503
S11310500895A1E21A2EAA1BBB1BFD010DC0AA1FF5
S1131060BB1FEE1FFF1FA217B307E407F50720F00D
S1131070A21BB30BE40BF50B661F771F881F991F88
S11310801A9469F760957095809590959B01AC01D1
S1131090BD01CF010895EE0FFF1F0590F491E02DDF
S11310A00994DF93CF931F930F939A9DF02D219F63
S11310B0F00D8B9DF00D8A9DE02DF10D039FF00D39
S11310C0029FE00DF11D4E9DE00DF11D5E9DF00DA2
S11310D04F9DF00D7F936F93BF92AF925F934F93A9
S11310E0D5010E9409098B01AC01D7010E940909AD
S11310F0EB01E80FF91FD6010E94A1082F913F913F
S1131100D6010E940909C60FD71FE81FF91FAF9126
S1131110BF910E94A1082F913F910E940909C60F17
S1131120D71FE81FF91FD6010E940909E60FF71F10
S11311309801BE01CF0111240F911F91CF91DF912E
S113114008950E940909460F571FC81FD91F08F4A4
S113115031960895689401C0E8948F929F92CF933A
S1131160DF930E94B808DF91CF919F908F900895EC
S113117088249924F401E401B0E49F93AA279A15E2
S11311808B049C04ED05FE05CF05D007A10798F458
S1131190AD2FDC2FCF2FFE2FE92D982C892E982FE1
S11311A0872F762F652F542F432F322F2227B850A5
S11311B031F7BF9127C01B2EBF91BB27220F331FCE
S11311C0441F551F661F771F881F991F881C991C71
S11311D0EE1FFF1FCC1FDD1FAA1FBB1F8A149B0419
S11311E0EC05FD05CE05DF05A007B10748F08A1818
S11311F09B08EC09FD09CE09DF09A00BB10B2160A6
S11312001A94E1F62EF49401AF01BE01CD01000C55
S11312100895A29FB001B39FC001A39F700D811DCB
S11312201124911DB29F700D811D1124911D0895EB
S1131230262FE199FECF9FBB8EBB2DBB0FB6F89432
S1111240E29AE19A0FBE01960895F894FFCF4A
S105124E3C005E
S9030000FC
